:100000000C941C010C9449010C9449010C94490175
:100010000C9449010C9449010C9449010C94490138
:100020000C9449010C9449010C9449010C94490128
:100030000C9449010C9449010C9449010C94490118
:100040000C9449010C9463150C9449010C944901DA
:100050000C9449010C9449010C9449010C940D1F16
:100060000C9449010C949D180C94E9190C944901C5
:100070000C9449010C9449010C9449010C944901D8
:100080000C94CC170C9449010C9449010C9449012F
:100090000C94DD180C94281A0C9449010C94490115
:1000A0000C9449010C9449010C94FC160C944901E0
:1000B0000C9449010C9449010C9449010C94331699
:1000C0000C9449010C9449010C9449010C941D199C
:1000D0000C94671A0C9449010C945D190C94A61A9F
:1000E0000C944901084AD73B3BCE016E84BCBFFD4E
:1000F000C12F3D6C74319ABD56833DDA3D00C77FF8
:1001000011BED9E4BB4C3E916BAAAABE0000008090
:100110003F00002100240027002A002D003000337A
:100120000001010000040107010A0100002200256E
:100130000028002B002E00310034000201000005D1
:100140000108010B01000020002300260029002CDB
:10015000002F003200000100000301060109010523
:10016000050505070508080808020202020A0A0830
:100170000804040404010101010101010103030356
:100180000303030303040707070C0C0C0C0C0C0CF3
:100190000C0202020206060606060606060B0B0BFA
:1001A0000B0B0B0B0B010210202008081020401035
:1001B000204080020102010804020101020408102B
:1001C0002040808040201008040201800402018049
:1001D0004020100804020108040201010204081072
:1001E00020408001020408102040800000090A021B
:1001F000080B0C0D070603040100000000000000BE
:1002000000000000000000000000000000000000EE
:100210000000000000000011100F000000000000AE
:1002200000000000000000000000000000000000CE
:1002300000000A08191C030811241FBECFEFD1E2E9
:10024000DEBFCDBF00E00CBF14E0A0E0B2E0EEE8FE
:10025000FBE400E00BBF02C007900D92A43CB10785
:10026000D9F71BBE19E0A4ECB4E001C01D92A33382
:10027000B107E1F712E0C6E3D2E004C02297FE0125
:100280000E947F25C233D107C9F70E944F1D0C94ED
:10029000BA250C940000CF93DF93BC018230910506
:1002A00010F462E070E0A0913109B0913209ED01E3
:1002B000E0E0F0E040E050E021C0888199818617BD
:1002C000970769F48A819B81309719F09383828321
:1002D00004C09093320980933109FE0134C068173D
:1002E000790738F44115510519F08417950708F47A
:1002F000AC01FE018A819B819C01E9012097E9F60E
:1003000041155105A9F1CA01861B970B049708F402
:10031000BA01E0E0F0E02AC08D919C91119784171A
:100320009507F9F46417750781F412968D919C91E5
:100330001397309719F09383828304C09093320906
:1003400080933109FD0132964CC0CA01861B970B80
:10035000FD01E80FF91F6193719302978D939C93B0
:1003600040C0FD01828193819C01D9011097A1F6C3
:1003700080912F0990913009892B41F480911A02C4
:1003800090911B029093300980932F0940911C0299
:1003900050911D024115510541F44DB75EB7809152
:1003A000180290911902481B590B20912F09309186
:1003B0003009CA01821B930B8617970780F0AB01A7
:1003C0004E5F5F4F8417950750F0420F531F5093B5
:1003D000300940932F09F9016193719302C0E0E065
:1003E000F0E0CF01DF91CF910895CF93DF93009795
:1003F00009F450C0EC0122971B821A82A0913109A6
:10040000B0913209109709F140E050E0AC17BD07F8
:1004100008F1BB83AA83FE0121913191E20FF31F02
:10042000AE17BF0779F48D919C911197280F391F52
:100430002E5F3F4F3983288312968D919C9113979D
:100440009B838A834115510571F4D0933209C0937F
:10045000310920C012968D919C911397AD010097A0
:1004600011F0DC01D3CFFA01D383C2832191319102
:10047000E20FF31FCE17DF0769F488819981280FF7
:10048000391F2E5F3F4FFA01318320838A819B8180
:1004900093838283DF91CF910895A0E0B0E0E3E5FC
:1004A000F2E00C9485256C01009729F4CB010E94A1
:1004B0004B016C01C1C08EEF882E8FEF982E8C0CF3
:1004C0009D1C8601060F171F0815190508F4B2C0F8
:1004D000F401A081B181A617B707B8F0A530B10526
:1004E00008F4AAC0CD0104978617970708F4A4C0A2
:1004F0001297A61BB70BF801A193B193D4016D938A
:100500007C93CF010E94F50197C07B01EA1AFB0A98
:10051000EEEFFFEFEE0EFF1E36016A0E7B1EC0915E
:100520003109D091320944245524AA24BB244AC05D
:10053000C615D705E1F5488159814E155F05B8F11B
:10054000CA0104978E159F05B0F41296A40FB51F2B
:10055000F401B183A0832A813B814114510431F01D
:10056000D20113963C932E93129766C030933209B2
:100570002093310961C08A819B81F8019383828332
:10058000425050404E195F09518340834114510439
:1005900031F0D20113961C930E93129704C010935E
:1005A000320900933109F4017183608345C0888169
:1005B0009981A816B90608F45C012E018A819B81F5
:1005C0009C01E901209709F0B3CF80912F09909108
:1005D000300986159705E9F4A616B706D0F42091E0
:1005E0001C0230911D022115310541F42DB73EB793
:1005F0008091180290911902281B390B02171307DA
:10060000C8F41093300900932F09D4016D937C93A3
:1006100013C0CB010E944B01EC01009759F0F4018B
:1006200040815181B6010E942203C6010E94F5015A
:100630006E0102C0CC24DD24C601CDB7DEB7E0E1F7
:100640000C94A125FB01DC0102C001900D924150E8
:100650005040D8F70895FB01DC0101900D92002075
:10066000E1F708950F931F93CF93DF93EC0197FD6C
:1006700070C0E1E0F0E081E0C836D8079CF09E0150
:1006800028563140C90168E671E00E942C2588E9AE
:100690009EEF689FE001699FD00D789FD00D1124D7
:1006A000C20FD31FCA35D105F4F1CE018A5590404F
:1006B0008A359105A0F08E01045B10400A351105C2
:1006C00008F44DC0662777276E1B7F0B882777FDC0
:1006D0008095982F0E945623E8E6F1E009C0BF01FB
:1006E000882777FD8095982F0E945623E4EBF0E051
:1006F000EC1BFD0BEE0FFF1FEE0FFF1FE05CFC4F2E
:1007000020813181428153810E943624E62F692F56
:100710002E2F372F482F562FB901CA01DF91CF91C5
:100720001F910F910895BF01882777FD8095982F1D
:100730000E945623CC0FDD1FCC0FDD1FC05CDC4FA9
:10074000288139814A815B810E943624E62F692FF6
:10075000DFCFD095C195DF4FEFEFFFEF8CCF66274E
:1007600077276E1B7F0B882777FD8095982F0E9437
:100770005623000F111F000F111F005C1C4FF801C2
:1007800020813181428153810E943624E62F692FD6
:10079000BFCFDC0197FD52C081E0A836B8079CF0BE
:1007A0009D0128563140C90168E671E00E942C2560
:1007B00088E99EEF689FD001699FB00D789FB00DCA
:1007C0001124A20FB31FAA35B1054CF1FD01EA5562
:1007D000F040EA35F105A8F0CD01845B90408A3500
:1007E000910558F0AA0FBB1FAA0FBB1FA85FB0400E
:1007F0006D917D918D919C910895EEE0F1E0EA1B61
:10080000FB0BEE0FFF1FEE0FFF1FE05CFC4F808124
:100810009181A281B381BC01CD0190580895EAE590
:10082000F0E0EA1BFB0BEE0FFF1FEE0FFF1FE05C7B
:10083000FC4F60817181828193810895B095A1956B
:10084000BF4FAACF2F923F924F925F926F927F92AB
:100850008F929F92AF92BF92CF92DF92EF92FF92D0
:100860000F931F93DF93CF9300D00F92CDB7DEB7D6
:1008700069837A838B839C8320E030E040E85FEBE0
:100880000E94B72287FD0CC069817A818B819C818F
:1008900020E030E040E85FE30E942B2418161CF5AE
:1008A0000F2EF0E0EF2EF0E0FF2EF0E00F2FF0E043
:1008B0001F2FF02DB701C8010F900F900F900F90D0
:1008C000CF91DF911F910F91FF90EF90DF90CF902C
:1008D000BF90AF909F908F907F906F905F904F9060
:1008E0003F902F90089569817A818B819C8120E0CF
:1008F00030E040E85FEB0E94B7228823B9F06981BD
:100900007A818B819C8120E030E040E050E00E94C1
:10091000B7228823B1F40F2EFBEDEF2EFFE0FF2E60
:10092000F9EC0F2FFFE31F2FF02DC4CF0F2EFBED9F
:10093000EF2EFFE0FF2EF9E40F2FF0E41F2FF02D34
:10094000B9CF69817A818B819C8120E030E040E8D9
:100950005FE30E94B722882309F4A2CF69817A81DC
:100960008B819C8120E030E040E050E00E942B240D
:1009700018160CF0A2C069817A818B819C812DECC4
:100980003CEC4CE45FE30E94B72218160CF0A2C0C6
:1009900069817A818B819C8120E030E040E050E0E9
:1009A0000E942B2418160CF0EEC069817A818B818D
:1009B0009C8120E030E04AE754E40E94362420E0A5
:1009C00030E048E454E40E94F02120E030E040E8C8
:1009D0005EE30E9436247B018C010E9423234B019D
:1009E000B401882777FD8095982F0E9456239B019C
:1009F000AC01C801B7010E94F0215B016C0120E04D
:100A000030E040E05FE30E94B72287FD12C0089407
:100A1000811C911CB401882777FD8095982F0E9436
:100A200056239B01AC01C801B7010E94F0215B0174
:100A30006C01880C991C880C991CF401EC58FD4F32
:100A4000C601B50120813181428153810E94362443
:100A50007B018C0160E070E080E89FE3A6019501D6
:100A60000E94F02128E732E0820E931EF4012081DB
:100A70003181428153810E9436249B01AC01C8011F
:100A8000B7010E94F1217B018C0169817A818B8100
:100A90009C8120E030E040E050E00E94B7228823B3
:100AA0000CF008CF6BED7FE089E490E4A80197019A
:100AB0000E94F0217B018C01FDCE69817A818B81BE
:100AC0009C812DEC3CEC4CE45FEB0E942B248823B2
:100AD0000CF45ECF69817A818B819C819B01AC0192
:100AE0000E9436243B014C0129813A814B815C8173
:100AF0000E9436245B016C01A40193010E943624FC
:100B00001B012C016BED7FE089EC9FE329813A8189
:100B10004B815C810E94F0217B018C01C601B501F3
:100B200021EC3AEA4AE25EEB0E9436249B01AC01DA
:100B3000C801B7010E94F1217B018C01C201B10102
:100B40002AE939E949E95DEB0E9436249B01AC01B1
:100B5000C801B7010E94F1217B018C01C201B101E2
:100B6000A40193010E94362428E83AED46E35DEBA8
:100B70000E9436249B01AC01C801B7010E94F121FB
:100B80007B018C0197CE69817A818B819C8120E0E9
:100B900030E04AE754EC11CF2F923F924F925F9290
:100BA0006F927F928F929F92AF92BF92CF92DF927D
:100BB000EF92FF920F931F93DF93CF93CDB7DEB7E2
:100BC000AE970FB6F894DEBF0FBECDBF9EA38DA328
:100BD000C982DA82EB82FC820D831E832F833887E1
:100BE00049875A876B877C8789819A81AB81BC81D1
:100BF0008D8B9E8BAF8BB88F89859A85AB85BC8595
:100C0000898B9A8BAB8BBC8B8D819E81AF81B88594
:100C10008D879E87AF87B88B6091DD057091DE056B
:100C20008091DF059091E0050E942323DC01CB0138
:100C30000E94C90369A37AA38BA39CA36091E105D9
:100C40007091E2058091E3059091E4050E942323D1
:100C5000DC01CB010E94C9036D8F7E8F8F8F98A31B
:100C60006091E5057091E6058091E7059091E805B2
:100C70000E942323DC01CB010E94C903698F7A8F74
:100C80008B8F9C8F6091DD057091DE058091DF0573
:100C90009091E0050E942323DC01CB010E943203E6
:100CA0001B012C016091E1057091E2058091E30543
:100CB0009091E4050E942323DC01CB010E943203C2
:100CC0005B016C016091E5057091E6058091E70597
:100CD0009091E8050E942323DC01CB010E9432039E
:100CE0003B014C01C201B101A60195010E943624CD
:100CF0006FA378A789A79AA769A17AA18BA19CA1C4
:100D0000A60195010E9436246BA77CA78DA79EA7FC
:100D100069A17AA18BA19CA12D893E894F89588D0B
:100D20000E9436249B01AC016D8D7E8D8F8D98A124
:100D30000E9436247B018C016D8D7E8D8F8D98A154
:100D400029893A894B895C890E9436249B01AC0130
:100D5000C401B3010E9436249B01AC01C801B70154
:100D60000E94F0217B018C01C601B5012D853E85D5
:100D70004F8558890E9436249B01AC01C801B701F8
:100D80000E94F121ADA1BEA16D937D938D939C93A3
:100D90001397698D7A8D8B8D9C8D2FA138A549A5D0
:100DA0005AA50E9436247B018C0169A17AA18BA1EE
:100DB0009CA1A40193010E9436249B01AC01C801AF
:100DC000B7010E94F1212D893E894F89588D0E94DB
:100DD00036245B016C01C401B3012FA138A549A5DC
:100DE0005AA50E9436247B018C0169A17AA18BA1AE
:100DF0009CA1298D3A8D4B8D5C8D0E9436249B01E0
:100E0000AC01C801B7010E94F1212D853E854F85B7
:100E100058890E9436249B01AC01C601B5010E948D
:100E2000F1217B018C01C201B10129893A894B89E9
:100E30005C890E9436249B01AC016D8D7E8D8F8D67
:100E400098A10E9436249B01AC01C801B7010E9401
:100E5000F021EDA1FEA16483758386839783C2018F
:100E6000B101A40193010E9436247B018C01698D9C
:100E70007A8D8B8D9C8D2BA53CA54DA55EA50E94E2
:100E800036249B01AC01C801B7010E94F0212D89D5
:100E90003E894F89588D0E9436245B016C01C40144
:100EA000B3012BA53CA54DA55EA50E9436247B0170
:100EB0008C01698D7A8D8B8D9C8DA20191010E9490
:100EC00036249B01AC01C801B7010E94F1212D8598
:100ED0003E854F8558890E9436249B01AC01C6018E
:100EE000B5010E94F1217B018C0169A17AA18BA13E
:100EF0009CA129893A894B895C890E9436249B01EF
:100F0000AC016D8D7E8D8F8D98A10E9436249B0142
:100F1000AC01C801B7010E94F121ADA1BEA1189694
:100F20006D937D938D939C931B97CD01AE960FB6D9
:100F3000F894DEBF0FBECDBFCF91DF911F910F910F
:100F4000FF90EF90DF90CF90BF90AF909F908F90E9
:100F50007F906F905F904F903F902F900895CF9328
:100F6000DF938130910541F0892B19F46F5F7F4F3A
:100F700049F1DF91CF9108956F5F7F4FD1F7C4ECB6
:100F8000D4E0CE010E94B313A59685E0C23AD807FB
:100F9000C1F782EA95E060E072E00E94D02189EA20
:100FA00095E060E072E00E94D02180EB95E060E087
:100FB00072E00E94D02187EB95E060E072E00E9431
:100FC000D021D7CF87EB95E00E94EA2180EB95E016
:100FD0000E94EA2189EA95E00E94EA2182EA95E0EE
:100FE0000E94EA21CDE7D5E0E881F9810190F08106
:100FF000E02DCE011995A59784E0CF39D807A1F748
:10100000DF91CF91089580E090E06FEF7FEF0E9435
:10101000AF07089581E090E06FEF7FEF0E94AF0788
:1010200008952F923F924F925F926F927F928F928C
:101030009F92AF92BF92CF92DF92EF92FF920F9367
:101040001F93DF93CF93CDB7DEB72A970FB6F894EF
:10105000DEBF0FBECDBF6D837E838F83988739013E
:101060004A01DA86C9869B01AC010E9436245B01E5
:101070006C01C801B701A80197010E9436249B01A9
:10108000AC01C601B5010E94F1210E949D2420E01F
:1010900030E040E850E40E94F0219B01AC010E9446
:1010A00036245B016C01C401B301A40193010E94C9
:1010B00036249B01AC01C601B5010E94F1210E94BA
:1010C0009D245B016C01C401B301A60195010E943E
:1010D000BB220E94220469837A838B839C83C6018E
:1010E000B501A60195010E9436241B012C0120E0C8
:1010F00030E048EC51E40E94F12120E030E044E48B
:1011000052E40E94F0213B014C01C601B501A60149
:1011100095010E94F12120E030E040EA50E40E9475
:1011200036249B01AC01C401B3010E94BB220E9482
:1011300022045B016C0160E070E084E992E4A201AA
:1011400091010E94F02120E030E04CE852E40E943E
:10115000BB220E9422043B014C016D817E818F8164
:101160009885A80197010E94642221EE3EE245E69F
:1011700052E40E94362420E030E044EB52E40E9426
:10118000F1210E942323882777FD8095982F0E94C4
:101190005623E985FA8521A132A143A154A10E94D9
:1011A000F0210E9423232B0177FF04C088E691E001
:1011B000480E591E69817A818B819C81A601950117
:1011C0000E94F12121EE3EE245E652E40E943624DF
:1011D0000E942323A4EBFA2EF61AC401B30121EED8
:1011E0003EE245E652E40E9436240E9423238B010E
:1011F0009C0189859A85642D4F2D202F0E940E1306
:101200002A960FB6F894DEBF0FBECDBFCF91DF9107
:101210001F910F91FF90EF90DF90CF90BF90AF9014
:101220009F908F907F906F905F904F903F902F9006
:1012300008958F929F92AF92BF92CF92DF92EF92DA
:10124000FF920F931F93CF93DF938EE998E040E8CE
:1012500055E260E070E00E94E51A82EE98E040E816
:1012600055E260E070E00E94E51A78EDC72E74E068
:10127000D72EC0E0D0E066E1E62E0F2EF0E08F2EF4
:10128000F0E09F2EF0EAAF2EF0E4BF2EF02D8EE9B5
:1012900098E0BE014AE050E00E94B51ECE01880FE2
:1012A000991F880F991F9C01220F331F220F331F94
:1012B000220F331F820F931F8C0F9D1F2E2D2E5F29
:1012C0008E01000F111F0C0F1D1F000F111F000FAB
:1012D000111F025E1D4F8C539B4F6E2DE3944E2DBC
:1012E0000E942A13F60185829682A782B086C08367
:1012F00064E170E080E090E00E948A1F2196F3E0B4
:10130000EF0E85E290E0C80ED91E9EE2E91609F0C4
:10131000BECF60ED77E080E090E00E948A1F20E081
:1013200030E040EC50E42093D9043093DA04409349
:10133000DB045093DC040F2EF0E0AF2EF0E0BF2E64
:10134000F0E6CF2EF0E4DF2EF02DA092E104B09273
:10135000E204C092E304D092E40480E090E0A0E7CD
:10136000B2E48093E5049093E604A093E704B0937D
:10137000E8042093FE043093FF044093000550934B
:1013800001050F2EF0E0EF2EF0E0FF2EF0E60F2F1C
:10139000F0EC1F2FF02DE0920605F0920705009368
:1013A00008051093090580E090E0A0EFB2E4809377
:1013B0000A0590930B05A0930C05B0930D0520E052
:1013C00030E040E050E02093230530932405409323
:1013D00025055093260580E090E0A0EDB0E48093D1
:1013E0002B0590932C05A0932D05B0932E052093EB
:1013F0002F053093300540933105509332052093EB
:1014000048053093490540934A0550934B0580E0C9
:1014100090E0A0EDB0EC8093500590935105A0931F
:101420005205B093530580E090E0A4E3B3E48093C9
:10143000540590935505A0935605B093570520E0A9
:1014400030E040EC50EC20936D0530936E054093F6
:101450006F0550937005A0927505B0927605C09205
:101460007705D092780580E090E0A6E9B3E4809318
:10147000790590937A05A0937B05B0937C05209322
:101480009205309393054093940550939505E0920F
:101490009A05F0929B0500939C0510939D0580E0B2
:1014A00090E0A0E7B3E480939E0590939F05A093FE
:1014B000A005B093A105DF91CF911F910F91FF90EF
:1014C000EF90DF90CF90BF90AF909F908F90089556
:1014D0002F923F924F925F926F927F928F929F9244
:1014E000AF92BF92CF92DF92EF92FF920F931F9332
:1014F000DF93CF93CDB7DEB7C45ED0400FB6F8947C
:10150000DEBF0FBECDBF0E94551F7B018C016093D3
:10151000C3057093C4058093C5059093C60560917B
:10152000C7057091C8052091BF053091C005621BA9
:10153000730B6E0D7F1D7093C8056093C7058827D8
:1015400077FD8095982F0E94562320E030E04AE7EF
:1015500054E40E94BB22CB54DF4F688379838A8393
:101560009B83C55BD0408091D5059091D605A09115
:10157000D705B091D805CF52DF4F88839983AA83CE
:10158000BB83C15DD040E0906602F090670200919D
:10159000680210916902BC01CD019B01AC010E945F
:1015A000F121A80197010E94BB223B014C018091CF
:1015B000700290917102A0917202B0917302C353B4
:1015C000DF4F88839983AA83BB83CD5CD040209072
:1015D000D9053090DA054090DB055090DC05C2015A
:1015E000B101A20191010E94F121A80197010E947D
:1015F000BB225B016C01C401B301CB54DF4F2881D6
:1016000039814A815B81C55BD0400E943624CF522C
:10161000DF4F288139814A815B81C15DD0400E94C2
:10162000F021C753DF4F688379838A839B83C95C2A
:10163000D040C353DF4F688179818A819B81CD5C23
:10164000D040A80197010E94BB227B018C01CB54A2
:10165000DF4F688179818A819B81C55BD04020E022
:1016600030E040EC50E40E9436249B01AC01C801FC
:10167000B7010E94F021CB53DF4F688379838A83BF
:101680009B83C55CD040C601B501CB54DF4F288198
:1016900039814A815B81C55BD0400E943624A2011A
:1016A00091010E94F021CF53DF4F688379838A83B1
:1016B0009B83C15CD04097FA909497F89094C401B2
:1016C000B301CB54DF4F288139814A815B81C55BEF
:1016D000D0400E9436249B01AC01CF52DF4F68817D
:1016E00079818A819B81C15DD0400E94F121C354E0
:1016F000DF4F688379838A839B83CD5BD040D7FAA1
:10170000D094D7F8D094C601B501CB54DF4F2881CF
:1017100039814A815B81C55BD0400E9436249B01A0
:10172000AC01C201B1010E94F121C754DF4F6883AF
:1017300079838A839B83C95BD0408091C90590914E
:10174000CA05009709F017C10AE6402E02E0502EA4
:1017500019ED612E14E0712EBDEE8B2EBFEF9B2E86
:10176000860C971CA3EF2A2EAFEF3A2E260C371CBF
:10177000D3011A97CD54DF4FB983A883C35BD04000
:10178000F3013797CF54DF4FF983E883C15BD04033
:101790002EC0813009F442C10894411C511C85E2DD
:1017A00090E0680E791E880E991E280E391ECD54C1
:1017B000DF4FA881B981C35BD0409596CD54DF4FF0
:1017C000B983A883C35BD040CF54DF4FE881F98150
:1017D000C15BD040B596CF54DF4FF983E883C15B3E
:1017E000D040F0E74F16F2E05F0609F4C7C0D2011F
:1017F0008C91882371F6C753DF4F688179818A8184
:101800009B81C95CD040F3012081318142815381A9
:101810000E94F1215B016C01CB53DF4F688179811C
:101820008A819B81C55CD040D40157962D913D9112
:101830004D915C915A970E94F1217B018C01CF530D
:10184000DF4F688179818A819B81C15CD040F4013E
:10185000238D348D458D568D0E94F1216D8B7E8BAD
:101860008F8B988FC701D801898B9A8BAB8BBC8BE0
:10187000C501D6018D879E87AF87B88BCE010196B3
:10188000CD84DE84EF84F88809891A892B893C8904
:101890004D895E896F89788D0E94CC05A980BA80B8
:1018A000CB80DC802D813E814F815885E984FA848C
:1018B0000B851C8580EB94E09A8F898FD4018D91E4
:1018C0009C9111979C8F8B8F12968D919C91139761
:1018D0009E8F8D8F14968D919C91159798A38F8FC5
:1018E000DE019196F10183E001900D928150E1F7C4
:1018F000DE019496CD54DF4FE881F981C35BD0407F
:1019000083E001900D928150E1F7DE019796CF546C
:10191000DF4FE881F981C15BD04083E001900D92F7
:101920008150E1F7F40187858AA780898BA7818997
:101930008CA782898DA7DE019E96F3018CE0019031
:101940000D928150E1F7F401878D90A1A1A1B2A180
:101950008AAF9BAFACAFBDAFC601B501F9E1CF2EE9
:10196000D12CCC0EDD1E0E941108C6010E94081366
:10197000D2018C910ECF019709F429C1CB54DF4FCE
:10198000688179818A819B81C55BD0402091660204
:101990003091670240916802509169020E942B24A5
:1019A00018167CF41092C8051092C7058091C905DD
:1019B0009091CA05892B09F403C11092CA051092AF
:1019C000C90581E08093BE058091C3059091C4054F
:1019D000A091C505B091C6058093BF059093C00541
:1019E000A093C105B093C205CC51DF4F0FB6F89458
:1019F000DEBF0FBECDBFCF91DF911F910F91FF9042
:101A0000EF90DF90CF90BF90AF909F908F907F909E
:101A10006F905F904F903F902F900895C354DF4F89
:101A2000688179818A819B81CD5BD040F3012081DF
:101A30003181428153810E94F1215B016C01C353CA
:101A4000DF4F688179818A819B81CD5CD040D40150
:101A500057962D913D914D915C915A970E94F1219D
:101A60007B018C01C754DF4F688179818A819B811A
:101A7000C95BD040F401238D348D458D568D0E9475
:101A8000F12169877A878B879C87C701D8018D836D
:101A90009E83AF83B887C501D60189839A83AB83C0
:101AA000BC83CE010D96C980DA80EB80FC800D816D
:101AB0001E812F81388549855A856B857C850E94DA
:101AC000CC05AD84BE84CF84D88829893A894B89D6
:101AD0005C89ED88FE880F89188D80EB94E09FAFBC
:101AE0008EAFD4018D919C91119722969FAF8EAFAE
:101AF000229712968D919C91139724969FAF8EAF4B
:101B0000249714968D919C91159726969FAF8EAF32
:101B10002697DE01AA5BBF4FF10183E001900D9291
:101B20008150E1F7DE01A75BBF4FCD54DF4FE88165
:101B3000F981C35BD04083E001900D928150E1F7C1
:101B4000DE01A45BBF4FCF54DF4FE881F981C15B59
:101B5000D04083E001900D928150E1F7F401878538
:101B600060968FAF6097808961968FAF619781890A
:101B700062968FAF6297828963968FAF6397DE011B
:101B8000AD5ABF4FF3018CE001900D928150E1F707
:101B9000F401878D90A1A1A1B2A1A3968CAF9DAFB6
:101BA000AEAFBFAFA397C601B501EEE3CE2ED12CE9
:101BB000CC0EDD1E0E941108C6010E940813ECCD58
:101BC00081E090E09093CA058093C905FACE0FE6B4
:101BD000402E02E0502E19ED612E14E0712EBDEE64
:101BE0008B2EBFEF9B2E860C971CA3EF2A2EAFEFF8
:101BF0003A2E260C371CC3010A97C155DF4F998333
:101C00008883CF5AD040D3011797C355DF4FB9838C
:101C1000A883CD5AD040E3E6F0E0EC0FFD1F3896E4
:101C2000CB52DF4FF983E883C55DD04083E690E077
:101C30008C0F9D1F0B96C952DF4F99838883C75D18
:101C4000D040A3E6B0E0AC0FBD1F1E96C752DF4FD9
:101C5000B983A883C95DD040E3E6F0E0EC0FFD1F37
:101C60007596C552DF4FF983E883CB5DD04088E895
:101C700090E08C0F9D1F0896C352DF4F9983888395
:101C8000CD5DD040A8E8B0E0AC0FBD1F1B96C1529F
:101C9000DF4FB983A883CF5DD040E8E8F0E0EC0FD8
:101CA000FD1F3E96CF51DF4FF983E883C15ED040E0
:101CB00088E890E08C0F9D1F4596CD51DF4F9983AA
:101CC0008883C35ED0402EC0813009F413C10894CC
:101CD0004108510885E290E0680E791E880E991E31
:101CE000280E391EC155DF4FA881B981CF5AD04087
:101CF0009596C155DF4FB983A883CF5AD040C355BD
:101D0000DF4FE881F981CD5AD040B596C355DF4FFA
:101D1000F983E883CD5AD040F9E64F16F2E05F062A
:101D200009F42CCED2018C91882371F6C753DF4F72
:101D3000688179818A819B81C95CD040F3012081CF
:101D40003181428153810E94F1215B016C01CB53AF
:101D5000DF4F688179818A819B81C55CD040D40145
:101D600057962D913D914D915C915A970E94F1218A
:101D70007B018C01CF53DF4F688179818A819B8100
:101D8000C15CD040F401238D348D458D568D0E9469
:101D9000F1216D8B7E8B8F8B988FC701D801898B3A
:101DA0009A8BAB8BBC8BC501D6018D879E87AF8785
:101DB000B88BCE010196CD84DE84EF84F888098942
:101DC0001A892B893C894D895E896F89788D0E949B
:101DD000CC05A980BA80CB80DC802D813E814F81EB
:101DE0005885E984FA840B851C8580EB94E0A596E0
:101DF0009FAF8EAFA597D4018D919C911197A79617
:101E00009FAF8EAFA79712968D919C911397A9962D
:101E10009FAF8EAFA99714968D919C911597AB9615
:101E20009FAF8EAFAB97CB52DF4FA881B981C55D15
:101E3000D040F10183E001900D928150E1F7C95249
:101E4000DF4FA881B981C75DD040C155DF4FE88120
:101E5000F981CF5AD04083E001900D928150E1F793
:101E6000C752DF4FA881B981C95DD040C355DF4F4C
:101E7000E881F981CD5AD04083E001900D928150E4
:101E8000E1F7F4018785E5968FAFE5978089E696BF
:101E90008FAFE6978189E7968FAFE7978289E896BB
:101EA0008FAFE897C552DF4FA881B981CB5DD04095
:101EB000F3018CE001900D928150E1F7F401878DE0
:101EC00090A1A1A1B2A1CC57DF4F88839983AA83A7
:101ED000BB83C458D040C601B501F3E6CF2ED12C48
:101EE000CC0EDD1E0E941108C6010E940813D2010B
:101EF0008C91EACEC354DF4F688179818A819B81BE
:101F0000CD5BD040F30120813181428153810E9419
:101F1000F1215B016C01C353DF4F688179818A81B4
:101F20009B81CD5CD040D40157962D913D914D9130
:101F30005C915A970E94F1217B018C01C754DF4FBD
:101F4000688179818A819B81C95BD040F401238DAE
:101F5000348D458D568D0E94F12169877A878B8754
:101F60009C87C701D8018D839E83AF83B887C50145
:101F7000D60189839A83AB83BC83CE010D96C98039
:101F8000DA80EB80FC800D811E812F8138854985A8
:101F90005A856B857C850E94CC05AD84BE84CF8438
:101FA000D88829893A894B895C89ED88FE880F8910
:101FB000188D80EB94E0C857DF4F99838883C85809
:101FC000D040D4018D919C911197C657DF4F9983D2
:101FD0008883CA58D04012968D919C911397C4570C
:101FE000DF4F99838883CC58D04014968D919C9173
:101FF0001597C257DF4F99838883CE58D040C3527C
:10200000DF4FA881B981CD5DD040F10183E001901F
:102010000D928150E1F7C152DF4FA881B981CF5DA8
:10202000D040C155DF4FE881F981CF5AD04083E0DD
:1020300001900D928150E1F7CF51DF4FA881B98116
:10204000C15ED040C355DF4FE881F981CD5AD04001
:1020500083E001900D928150E1F7F4018785C75626
:10206000DF4F8883C959D0408089C656DF4F8883A7
:10207000CA59D0408189C556DF4F8883CB59D0409B
:102080008289C456DF4F8883CC59D040CD51DF4F71
:10209000A881B981C35ED040F3018CE001900D921C
:1020A0008150E1F7F401878D90A1A1A1B2A1C7559C
:1020B000DF4F88839983AA83BB83C95AD040C60166
:1020C000B501E8E8CE2ED12CCC0EDD1E0E94110801
:1020D000C6010E940813FBCD2F923F924F925F9250
:1020E0006F927F928F929F92AF92BF92CF92DF9228
:1020F000EF92FF920F931F93DF93CF93CDB7DEB78D
:10210000ED970FB6F894DEBF0FBECDBF0E94551FEE
:102110007B018C016093CF057093D0058093D1052E
:102120009093D2056091D3057091D4052091CB0591
:102130003091CC05621B730B6E0D7F1D7093D4051F
:102140006093D305882777FD8095982F0E945623AA
:1021500020E030E04AE754E40E94BB2220E030E077
:1021600040E050E40E942B241816A4F480E090E094
:10217000A0E0B0E08093D5059093D605A093D70555
:10218000B093D8058093D9059093DA05A093DB0529
:10219000B093DC050F2EF0E0CF2EF0E0DF2EF0E064
:1021A000EF2EF0ECFF2EF02D0F2EF0E08F2EF0E052
:1021B0009F2EF0E0AF2EF0E4BF2EF02D82EE98E0DF
:1021C0000E94741B892BC1F16AE070E080E090E00E
:1021D0000E948A1F82EE98E00E94741B181619064E
:1021E0006CF782EE98E00E94A61B182F1092D4057F
:1021F0001092D3058EE998E061E072E00E94C81E5B
:102200008EE998E0612F0E94B21D113309F42CC1B0
:10221000123309F420C1133309F058C18092D90553
:102220009092DA05A092DB05B092DC0582EE98E090
:102230000E94741B892B41F61092BE05E090D505D3
:10224000F090D6050091D7051091D805C801B701C7
:1022500020E030E040E85FE30E942B2487FD0DC1C1
:102260000E94680A8091BE05882309F0DBC019ED41
:10227000612E14E0712EBDEE8B2EBFEF9B2E860CCF
:10228000971CADE02A2E312C2C0E3D1EF0EB4F2E6C
:10229000F4E05F2EF301608171818281938120914E
:1022A000D5053091D6054091D7055091D8050E94AB
:1022B000F1215B016C01F4016789708D818D928D34
:1022C000209170023091710240917202509173021C
:1022D0000E94F1217B018C01F401638D748D858D49
:1022E000968D2091D9053091DA054091DB0550910A
:1022F000DC050E94F12169877A878B879C87C7015B
:10230000D8018D839E83AF83B887C501D6018983A9
:102310009A83AB83BC83C101C980DA80EB80FC80E7
:102320000D811E812F81388549855A856B857C8575
:102330000E94CC05AD84BE84CF84D88829893A898F
:102340004B895C89ED88FE880F89188D5A8E498EDD
:10235000F401808191819C8F8B8F828193819E8FEC
:102360008D8F8481958198A38F8FDE019196F301E3
:102370003D9783E001900D928150E1F7DE01949644
:10238000F3013A9783E001900D928150E1F7DE016D
:102390009796F301379783E001900D928150E1F712
:1023A000F40187858AA780898BA781898CA7828978
:1023B0008DA7DE019E96F3018CE001900D92815075
:1023C000E1F7F401878D90A1A1A1B2A18AAF9BAFE3
:1023D000ACAFBDAFC601B501E9E1CE2ED12CCC0E1C
:1023E000DD1E0E941108C6010E94081385E290E0DC
:1023F000680E791E880E991E94EA891695E0990652
:1024000009F048CF8091CF059091D005A091D105DA
:10241000B091D2058093CB059093CC05A093CD05C8
:10242000B093CE05ED960FB6F894DEBF0FBECDBFCC
:10243000CF91DF911F910F91FF90EF90DF90CF90A0
:10244000BF90AF909F908F907F906F905F904F90D4
:102450003F902F900895C092D505D092D605E09276
:10246000D705F092D805AACE8092D5059092D605D0
:10247000A092D705B092D805A1CE6090D9057090F2
:10248000DA058090DB059090DC05C401B30120E003
:1024900030E040E85FE30E942B2487FFE1CEC801D3
:1024A000B70120E030E040E85FEB0E94B722181649
:1024B0000CF0D6CEC401B30120E030E040E85FEB81
:1024C0000E94B72218160CF4D2CECACE143349F4A7
:1024D000C092D905D092DA05E092DB05F092DC05D6
:1024E0006DCE1933B9F460917002709171028091D0
:1024F00072029091730220E030E040E85FE30E94B6
:10250000F121609370027093710280937202909334
:10251000730254CE1134B9F460917002709171025B
:10252000809172029091730220E030E040E85FE316
:102530000E94F02160937002709371028093720286
:10254000909373023BCE1733B9F46091DD0570911F
:10255000DE058091DF059091E00520E030E040EA63
:1025600050E40E94F1216093DD057093DE058093B5
:10257000DF059093E00522CE1633B9F46091DD05B6
:102580007091DE058091DF059091E00520E030E05C
:1025900040EA50E40E94F0216093DD057093DE056F
:1025A0008093DF059093E00509CE1833B9F460916C
:1025B000E1057091E2058091E3059091E40520E04A
:1025C00030E040EA50E40E94F1216093E10570930D
:1025D000E2058093E3059093E405F0CD153309F00F
:1025E000EDCD6091E1057091E2058091E305909158
:1025F000E40520E030E040EA50E40E94F0216093DE
:10260000E1057093E2058093E3059093E405D6CD50
:10261000FC0180EB94E0918380830895EF92FF9218
:102620000F931F938C01F42EE22E089670E00E9407
:102630003214C8010B966F2D70E00E943214C8014D
:102640000E966E2D70E00E9432141F910F91FF9034
:10265000EF9008955F926F927F928F929F92AF92C8
:10266000BF92CF92DF92EF92FF920F931F936C0174
:10267000762E642E522E78010EE918E0C8016EE025
:1026800072E00E94C81EF70164817581C8014AE0AA
:1026900050E00E945F1EC80167E172E00E94E71EE1
:1026A0008601085F1F4FC801672D70E00E945C150E
:1026B0009BE0A92EB12CAC0CBD1CC501662D70E0B1
:1026C0000E945C158EE0882E912C8C0C9D1CC40100
:1026D000652D70E00E945C15F701408151812281D7
:1026E0003381C801672D70E00E949F14F701448177
:1026F000558184E090E0E80EF91EF70122813381D4
:102700008CEF9FEFE80EF91EC501662D70E00E9468
:102710009F14F7014085518522853385C401652DBD
:1027200070E00E949F1488EC90E0F601958384830A
:1027300084E190E0978386831F910F91FF90EF9043
:10274000DF90CF90BF90AF909F908F907F906F90D1
:102750005F900895FC0180EB94E091838083CF012A
:102760000E94631D08950F931F938C0180EB94E0EA
:10277000F80191838083C80108960E94DB13C80189
:102780000B960E94DB13C8010E960E94DB1380E0BB
:1027900090E0A0E0B0E0F801858B968BA78BB08F1E
:1027A000818F928FA38FB48F858F968FA78FB0A3C1
:1027B0001F910F910895FC018091E905803318F075
:1027C0008FEF8083089580838F5F8093E905815028
:1027D00090E0FC01EE0FFF1FE80FF91FE651FA4FE2
:1027E00088EB9BE0928381830895FC012081203354
:1027F00038F58181992787FD909548E850E0481B7E
:10280000590B440F551F440F551F64177507CCF41F
:1028100042505040CA01AA2797FDA095BA2F880FB1
:10282000991FAA1FBB1F4FB7F89430E0F901EE0FB4
:10283000FF1FE20FF31FE651FA4F928381834FBFD0
:1028400008958281992787FD909548E552E0481BBD
:10285000590B440F551F440F551F64177507C4F6D5
:10286000AB01D6CFAF92BF92CF92DF92EF92FF92A1
:102870000F931F93CF93DF93EC019B0182E06032B3
:1028800078070CF045C077FD52C0653B71050CF42C
:1028900050C044EB50E060E070E000D00F928981BE
:1028A000992787FD9095B8E8AB2EB12CA81AB90AE4
:1028B000AA0CBB1CAA0CBB1CCC24B7FCC094DC2CFF
:1028C0002A81332727FD309588E592E0821B930B00
:1028D000880F991F880F991FAA2797FDA095BA2FD7
:1028E000EDB7FEB781839283A383B483CB01BA0192
:1028F00020E030E040E050E0E4EBEE2EF12C012D42
:10290000112D0E940F219B010F900F900F900F909F
:10291000CE01B9010E94F513DF91CF911F910F9164
:10292000FF90EF90DF90CF90BF90AF90089520E0A0
:1029300030E0A901662757FD6095762FAECFCF9284
:10294000DF92EF92FF921F93CF93DF93EC01162F4C
:102950007A0169018881803340F0DF91CF911F9126
:10296000FF90EF90DF90CF900895862F61E00E9456
:102970001720888190E0FC01EE0FFF1FE80FF91F80
:10298000E651FA4F1F738081807C812B808380E227
:1029900092E08E199F0997FD71C095958795959541
:1029A0008795898380E699E08C199D0997FD64C01D
:1029B00095958795959587958A83A8818A2F6CE050
:1029C0000E942025682F70E0AB01440F551F460F71
:1029D000571F440F551F440F551F20E030E0C90119
:1029E000840F951FFC01EE0FFF1FE80FF91FE65142
:1029F000FA4F808186FD1BC02F5F3F4F2C30310581
:102A000071F76130710541F162307105C9F16330D0
:102A1000710509F042C01092A00082E08093A100ED
:102A20001092A5001092A40089BB809372008A2F97
:102A300090E0FC01EE0FFF1FE80FF91FE651FA4F7F
:102A40008081806480838881DF91CF911F91FF9086
:102A5000EF90DF90CF9008951092800082E08093F5
:102A600081001092850010928400B19A80916F00CD
:102A7000826080936F00DBCF03969ACF03968DCF51
:102A80001092900082E08093910010929500109235
:102A9000940088BB80937100CACF672B41F61092D7
:102AA000200182E0809321011092250110922401DF
:102AB0008ABB80937300BBCF40E252E020E639E04E
:102AC0000E949F1408951F920F920FB60F920BB69B
:102AD0000F9211242F933F934F935F936F937F93A4
:102AE0008F939F93AF93BF93EF93FF9380917B0658
:102AF00087FDB2C080917B06992787FD90950C9643
:102B00004091E905242F30E0821793070CF443C06D
:102B100080917B068F5F80937B0680917B0699274F
:102B200087FD90950C96242F30E0821793072CF4A4
:102B300080917B068C300CF453C08091840090917E
:102B40008500049680549C49F8F08091840090910F
:102B50008500049690938900809388008FEF80937E
:102B60007B06FF91EF91BF91AF919F918F917F91E4
:102B70006F915F914F913F912F910F900BBE0F90EE
:102B80000FBE0F901F90189580E49CE990938900E8
:102B900080938800E3CF80917B06992787FD9095ED
:102BA0000C96FC01EE0FFF1FE80FF91FE651FA4FDC
:102BB000808186FFADCF80917B06992787FD909518
:102BC0000C96FC01EE0FFF1FE80FF91FE651FA4FBC
:102BD00080818F7360E00E94D9204091E90598CFF1
:102BE000209184003091850080917B06992787FD94
:102BF00090950C96FC01EE0FFF1FE80FF91FE651B0
:102C0000FA4F81819281280F391F309389002093D8
:102C1000880080917B06992787FD90950C96FC0192
:102C2000EE0FFF1FE80FF91FE651FA4F808186FF74
:102C300098CF80917B06992787FD90950C96FC0193
:102C4000EE0FFF1FE80FF91FE651FA4F80818F73D7
:102C500061E00E94D92085CF1092850010928400F7
:102C60004091E90555CF1F920F920FB60F920BB608
:102C70000F9211242F933F934F935F936F937F9302
:102C80008F939F93AF93BF93EF93FF9380917A06B7
:102C900087FDABC080917A06992787FD909540917A
:102CA000E905242F30E0821793070CF442C080918D
:102CB0007A068F5F80937A0680917A06992787FD3E
:102CC0009095242F30E0821793072CF480917A0698
:102CD0008C300CF451C08091240190912501049610
:102CE00080549C49F8F0809124019091250104962C
:102CF00090932901809328018FEF80937A06FF91AA
:102D0000EF91BF91AF919F918F917F916F915F9163
:102D10004F913F912F910F900BBE0F900FBE0F90D0
:102D20001F90189580E49CE99093290180932801D5
:102D3000E3CF80917A06992787FD9095FC01EE0FED
:102D4000FF1FE80FF91FE651FA4F808186FFAFCFD2
:102D500080917A06992787FD9095FC01EE0FFF1F61
:102D6000E80FF91FE651FA4F80818F7360E00E94EF
:102D7000D9204091E9059BCF209124013091250174
:102D800080917A06992787FD9095FC01EE0FFF1F31
:102D9000E80FF91FE651FA4F81819281280F391F00
:102DA000309329012093280180917A06992787FD85
:102DB0009095FC01EE0FFF1FE80FF91FE651FA4F47
:102DC000808186FF9CCF80917A06992787FD909518
:102DD000FC01EE0FFF1FE80FF91FE651FA4F80814B
:102DE0008F7361E00E94D9208ACF10922501109242
:102DF00024014091E9055BCF1F920F920FB60F920D
:102E00000BB60F9211242F933F934F935F936F93C1
:102E10007F938F939F93AF93BF93EF93FF93809193
:102E20007D0687FDB2C080917D06992787FD90952C
:102E300084964091E905242F30E0821793070CF423
:102E400043C080917D068F5F80937D0680917D06D3
:102E5000992787FD90958496242F30E08217930759
:102E60002CF480917D068C300CF453C08091A4002A
:102E70009091A500049680549C49F8F08091A4009C
:102E80009091A50004969093A9008093A8008FEFDD
:102E900080937D06FF91EF91BF91AF919F918F91AC
:102EA0007F916F915F914F913F912F910F900BBE4A
:102EB0000F900FBE0F901F90189580E49CE990939F
:102EC000A9008093A800E3CF80917D06992787FD14
:102ED00090958496FC01EE0FFF1FE80FF91FE65155
:102EE000FA4F808186FFADCF80917D06992787FDBF
:102EF00090958496FC01EE0FFF1FE80FF91FE65135
:102F0000FA4F80818F7360E00E94D9204091E905DB
:102F100098CF2091A4003091A50080917D0699273B
:102F200087FD90958496FC01EE0FFF1FE80FF91FB7
:102F3000E651FA4F81819281280F391F3093A90001
:102F40002093A80080917D06992787FD909584960F
:102F5000FC01EE0FFF1FE80FF91FE651FA4F8081C9
:102F600086FF98CF80917D06992787FD909584965E
:102F7000FC01EE0FFF1FE80FF91FE651FA4F8081A9
:102F80008F7361E00E94D92085CF1092A500109226
:102F9000A4004091E90555CF1F920F920FB60F92F2
:102FA0000BB60F9211242F933F934F935F936F9320
:102FB0007F938F939F93AF93BF93EF93FF938091F2
:102FC0007C0687FDB2C080917C06992787FD90958D
:102FD00048964091E905242F30E0821793070CF4BE
:102FE00043C080917C068F5F80937C0680917C0635
:102FF000992787FD90954896242F30E082179307F4
:103000002CF480917C068C300CF453C08091940099
:1030100090919500049680549C49F8F0809194001A
:1030200090919500049690939900809398008FEF6B
:1030300080937C06FF91EF91BF91AF919F918F910B
:103040007F916F915F914F913F912F910F900BBEA8
:103050000F900FBE0F901F90189580E49CE99093FD
:10306000990080939800E3CF80917C06992787FD93
:1030700090954896FC01EE0FFF1FE80FF91FE651EF
:10308000FA4F808186FFADCF80917C06992787FD1E
:1030900090954896FC01EE0FFF1FE80FF91FE651CF
:1030A000FA4F80818F7360E00E94D9204091E9053A
:1030B00098CF209194003091950080917C069927BB
:1030C00087FD90954896FC01EE0FFF1FE80FF91F52
:1030D000E651FA4F81819281280F391F3093990070
:1030E0002093980080917C06992787FD90954896BB
:1030F000FC01EE0FFF1FE80FF91FE651FA4F808128
:1031000086FF98CF80917C06992787FD90954896F9
:10311000FC01EE0FFF1FE80FF91FE651FA4F808107
:103120008F7361E00E94D92085CF10929500109294
:1031300094004091E90555CF08951F920F920FB664
:103140000F920BB60F9211242F933F934F938F93AF
:103150009F93EF93FF938091C00082FD2AC040911E
:10316000C6002091BE063091BF062F5F3F4F2F73E0
:1031700030708091C0069091C1062817390759F028
:10318000E091BE06F091BF06E258F94F40833093BC
:10319000BF062093BE06FF91EF919F918F914F91B3
:1031A0003F912F910F900BBE0F900FBE0F901F906D
:1031B00018958091C600EFCF08951F920F920FB619
:1031C0000F920BB60F9211242F933F934F938F932F
:1031D0009F93EF93FF938091C80082FD2AC0409196
:1031E000CE0020914607309147072F5F3F4F2F7346
:1031F000307080914807909149072817390759F096
:10320000E0914607F0914707EA5FF84F408330931B
:10321000470720934607FF91EF919F918F914F9120
:103220003F912F910F900BBE0F900FBE0F901F90EC
:1032300018958091CE00EFCF08951F920F920FB690
:103240000F920BB60F9211242F933F934F938F93AE
:103250009F93EF93FF938091D00082FD2AC040910D
:10326000D6002091CE073091CF072F5F3F4F2F73AD
:1032700030708091D0079091D1072817390759F005
:10328000E091CE07F091CF07E257F84F408330939B
:10329000CF072093CE07FF91EF919F918F914F9190
:1032A0003F912F910F900BBE0F900FBE0F901F906C
:1032B00018958091D600EFCF08951F920F920FB608
:1032C0000F920BB60F9211242F933F934F938F932E
:1032D0009F93EF93FF938091300182FD2AC040912C
:1032E000360120915608309157082F5F3F4F2F73BA
:1032F000307080915808909159082817390759F073
:10330000E0915608F0915708EA5EF74F40833093FA
:10331000570820935608FF91EF919F918F914F91FD
:103320003F912F910F900BBE0F900FBE0F901F90EB
:10333000189580913601EFCFE091AA08F091AB0883
:10334000E05CFF4F8191919120813181821B930B31
:103350008F739070892BD1F5E091CC08F091CD0856
:10336000E05CFF4F8191919120813181821B930B11
:103370008F739070892B39F5E091EE08F091EF088A
:10338000E05CFF4F8191919120813181821B930BF1
:103390008F739070892BA1F4E0911009F0911109BD
:1033A000E05CFF4F8191919120813181821B930BD1
:1033B0008F739070892B09F408950E945C19089509
:1033C0000E941C19E9CF0E94DC18D6CF0E949C18DD
:1033D000C3CF1F920F920FB60F920BB60F9211240C
:1033E0002F933F938F939F93EF93FF932091020727
:1033F000309103078091040790910507281739073A
:1034000009F1E0910407F0910507EE53F94F20818F
:10341000809104079091050701968F7390709093A7
:103420000507809304072093C600FF91EF919F91B9
:103430008F913F912F910F900BBE0F900FBE0F9069
:103440001F9018958091C1008F7D8093C100EDCFB2
:103450001F920F920FB60F920BB60F9211242F935B
:103460003F938F939F93EF93FF9320918A0730911F
:103470008B0780918C0790918D072817390709F1E8
:10348000E0918C07F0918D07E65BF84F20818091E9
:103490008C0790918D0701968F73907090938D0794
:1034A00080938C072093CE00FF91EF919F918F9195
:1034B0003F912F910F900BBE0F900FBE0F901F905A
:1034C00018958091C9008F7D8093C900EDCF1F9220
:1034D0000F920FB60F920BB60F9211242F933F93BA
:1034E0008F939F93EF93FF932091120830911308CD
:1034F00080911408909115082817390709F1E09177
:103500001408F0911508EE52F84F208180911408AC
:103510009091150801968F73907090931508809381
:1035200014082093D600FF91EF919F918F913F91C6
:103530002F910F900BBE0F900FBE0F901F901895FC
:103540008091D1008F7D8093D100EDCF1F920F929B
:103550000FB60F920BB60F9211242F933F938F93B8
:103560009F93EF93FF9320919A0830919B0880914D
:103570009C0890919D082817390709F1E0919C0853
:10358000F0919D08E65AF74F208180919C08909118
:103590009D0801968F73907090939D0880939C086E
:1035A00020933601FF91EF919F918F913F912F9141
:1035B0000F900BBE0F900FBE0F901F90189580912B
:1035C00031018F7D80933101EDCFDF92EF92FF9239
:1035D0000F931F93CF93DF93EC017A018B01DD24CE
:1035E000403081EE580780E0680780E0780721F1DD
:1035F000DD24D394EC89FD8981E090E008A002C02D
:10360000880F991F0A94E2F7808360E079E08DE3E8
:1036100090E0A80197010E94402521503040404091
:103620005040569547953795279580E120303807CB
:10363000D0F0DD20C1F0DD24EC89FD89108260E846
:1036400074E88EE190E0A80197010E944025215086
:10365000304040405040569547953795279580E13A
:103660002030380730F7E889F9893083EA89FB8907
:10367000208319A2EE89FF89408121E030E0C90151
:103680000C8C02C0880F991F0A94E2F7482B4083E4
:10369000EE89FF894081C9010D8C02C0880F991FF6
:1036A0000A94E2F7482B4083EE89FF894081C901E3
:1036B0000E8C02C0880F991F0A94E2F7482B4083B2
:1036C000EE89FF8980810F8C02C0220F331F0A947C
:1036D000E2F7209528232083DF91CF911F910F914E
:1036E000FF90EF90DF900895DC011C96ED91FC9126
:1036F0001D97E05CFF4F2191319180819181281BC2
:10370000390B2F733070C9010895DC011C96ED91BF
:10371000FC911D97E05CFF4F20813181E054F04027
:10372000DF01AE5BBF4F8D919C9111972817390730
:1037300049F08D919C91E80FF91F8081282F30E08E
:10374000C90108952FEF3FEFC9010895DC011C96D0
:10375000ED91FC911D97E05CFF4F20813181E05499
:10376000F040DF01AE5BBF4F8D919C911197281700
:10377000390791F08D919C911197E80FF91F2081E5
:103780008D919C91119701968F73907011969C93D7
:103790008E9330E0C90108952FEF3FEFC9010895DE
:1037A000FC0181A1882311F411A20895A489B5898F
:1037B0008C9186FFFDCF11A20895CF93DF93EC018A
:1037C000AE85BF85AD01405C5F4FFA01208131813C
:1037D0002F5F3F4F2F733070FD01EE5BFF4F8081F5
:1037E000918128173907D9F3FA0180819181A80FB7
:1037F000B91F6C93EE85FF85E05CFF4F318320831A
:10380000EE89FF89208181E090E00F8C02C0880F53
:10381000991F0A94E2F7282B208381E089A3EC8981
:10382000FD8980818064808381E090E0DF91CF9189
:1038300008951F931092A1081092A00828EE33E07B
:1038400040E050E02093A2083093A3084093A408DE
:103850005093A50868EB74E070939F0860939E08EE
:103860008EE796E09093AB088093AA0882EC96E0EE
:103870009093AD088093AC0885EC90E09093AF08EE
:103880008093AE0884EC90E09093B1088093B008E8
:1038900080EC90E09093B3088093B20881EC90E0C4
:1038A0009093B5088093B40882EC90E09093B708A9
:1038B0008093B60886EC90E09093B9088093B8089E
:1038C00014E01093BA08B3E0B093BB08A7E0A0934C
:1038D000BC08F5E0F093BD08E1E0E093BE0810926B
:1038E000C3081092C2082093C4083093C5084093BF
:1038F000C6085093C7087093C1086093C00886E05B
:1039000097E09093CD088093CC088AE497E0909359
:10391000CF088093CE088DEC90E09093D1088093EF
:10392000D0088CEC90E09093D3088093D20888EC78
:1039300090E09093D5088093D40889EC90E0909320
:10394000D7088093D6088AEC90E09093D9088093AA
:10395000D8088EEC90E09093DB088093DA081093FF
:10396000DC08B093DD08A093DE08F093DF08E09355
:10397000E0081092E5081092E4082093E6083093DE
:10398000E7084093E8085093E9087093E3086093D0
:10399000E2088EE897E09093EF088093EE0882EDBE
:1039A00097E09093F1088093F00885ED90E0909374
:1039B000F3088093F20884ED90E09093F5088093EB
:1039C000F40880ED90E09093F7088093F60881ED7D
:1039D00090E09093F9088093F80882ED90E090933E
:1039E000FB088093FA0886ED90E09093FD088093A1
:1039F000FC081093FE08B093FF08A0930009F09311
:103A00000109E09302091092070910920609209318
:103A100008093093090940930A0950930B097093E0
:103A200005096093040986E198E090931109809359
:103A300010098AE598E0909313098093120985E3B1
:103A400091E0909315098093140984E391E0909399
:103A500017098093160980E391E0909319098093E8
:103A6000180981E391E090931B0980931A0982E37E
:103A700091E090931D0980931C0986E391E0909357
:103A80001F0980931E0910932009B0932109A09368
:103A90002209F0932309E09324091F9108950E94BD
:103AA000B51F0E9419090E946C108CE999E1892BBD
:103AB00029F00E949C190E946C10FBCF0E946C1090
:103AC0000E946C10FBCF0E94F5010895CF92DF9207
:103AD000EF92FF920F931F93CF93DF937C016B01C3
:103AE000EA0141155105D9F000E010E0D6016D91D1
:103AF0006D01D701ED91FC910190F081E02DC7019E
:103B00001995080F191F219789F7C801DF91CF91E7
:103B10001F910F91FF90EF90DF90CF90089500E0FC
:103B200010E0F3CFEF92FF920F931F938C01DC0113
:103B3000ED91FC910190F081E02D6DE019957C01F3
:103B4000D801ED91FC910190F081E02DC8016AE06F
:103B500019959C012E0D3F1DC9011F910F91FF90DA
:103B6000EF900895EF92FF920F931F937C01DC0179
:103B7000ED91FC910190F081E02D19958C01C70128
:103B80000E94921D080F191FC8011F910F91FF90ED
:103B9000EF9008954F925F927F928F929F92AF9293
:103BA000BF92CF92DF92EF92FF920F931F93DF931A
:103BB000CF93CDB7DEB7A1970FB6F894DEBF0FBE97
:103BC000CDBF2C01742ECB01223008F460C0822EB0
:103BD0009924AA24BB2419A221E2C22ED12CCC0EF6
:103BE000DD1E0BC0405DF6014083E114F1040105C8
:103BF000110501F17E2C5F2DC801672D752FA501E0
:103C000094010E94402579018A01C801B701A501EC
:103C100094010E940125472D461B0894C108D10834
:103C20004A3004F3495CF6014083E114F1040105D4
:103C3000110501F7C114D10481F1D6010D900020C6
:103C4000E9F71197AC19BD09F20180819181FC015E
:103C500022813381C201B601AD01F90119959C01A0
:103C6000C901A1960FB6F894DEBF0FBECDBFCF91AC
:103C7000DF911F910F91FF90EF90DF90CF90BF9059
:103C8000AF909F908F907F905F904F9008953AE013
:103C9000832E912CA12CB12C9ECF20E030E0E0CFE0
:103CA000DC012115310519F00E94CA1D0895ED911E
:103CB000FC910190F081E02D642F19950895EF9209
:103CC000FF920F931F939A017B0100E010E0B8016F
:103CD000A7010E94501E1F910F91FF90EF90089531
:103CE000CF92DF92EF92FF920F931F93CF93DF93C8
:103CF000EC016A017B0121153105B9F02A3031054B
:103D000039F477FD1BC02AE00E94CA1D9C0103C044
:103D10000E94CA1D9C01C901DF91CF911F910F9193
:103D2000FF90EF90DF90CF900895E881F9810190A6
:103D3000F081E02D642F19959C01EDCFE881F98188
:103D40000190F081E02D6DE219958C0144275527F3
:103D5000BA014C195D096E097F09CE012AE00E9463
:103D6000CA1D9801280F391FD6CFEF92FF920F93EB
:103D70001F937B019A010027F7FC0095102FB801D3
:103D8000A7010E94701E1F910F91FF90EF90089560
:103D9000CF93DF93EC016115710599F0DB010D9074
:103DA0000020E9F71197A61BB70BE881F981028083
:103DB000F381E02DAD0119959C01C901DF91CF91EF
:103DC000089520E030E0C901DF91CF9108950F936D
:103DD0001F93CF93DF93EC0161157105D9F0DB01DF
:103DE0000D900020E9F71197A61BB70BE881F98128
:103DF0000280F381E02DAD0119958C01CE010E9466
:103E0000921D9801280F391FC901DF91CF911F9191
:103E10000F91089500E010E0F1CF1F920F920FB6BE
:103E20000F9211242F933F938F939F93AF93BF9340
:103E300080912A0990912B09A0912C09B0912D090C
:103E400030912E090196A11DB11D232F2D5F2D3715
:103E500020F02D570196A11DB11D20932E098093AE
:103E60002A0990932B09A0932C09B0932D098091D6
:103E7000260990912709A0912809B0912909019656
:103E8000A11DB11D8093260990932709A0932809AD
:103E9000B0932909BF91AF919F918F913F912F913D
:103EA0000F900FBE0F901F9018958FB7F894209128
:103EB0002A0930912B0940912C0950912D098FBF6F
:103EC000B901CA0108959FB7F8942091260930914D
:103ED0002709409128095091290986B5A89B06C059
:103EE0008F3F21F02F5F3F4F4F4F5F4F9FBF542FAA
:103EF000432F322F2227280F311D411D511D220F24
:103F0000331F441F551F220F331F441F551FB90174
:103F1000CA010895EF92FF920F931F93CF93DF93FF
:103F20007B018C010E94631FE114F104010511055E
:103F3000A9F0EB010E94631F6C1B7D0B685E734050
:103F4000C8F30894E108F10801091109E114F1042A
:103F50000105110519F0C851DC4FECCFDF91CF916D
:103F60001F910F91FF90EF900895789484B582602F
:103F700084BD84B5816084BD85B5826085BD85B50D
:103F8000816085BDEEE6F0E0808181608083E1E8BC
:103F9000F0E01082808182608083808181608083F4
:103FA000E0E8F0E0808181608083E1EBF0E08081F7
:103FB00084608083E0EBF0E0808181608083E1E9D0
:103FC000F0E0808182608083808181608083E0E98D
:103FD000F0E0808181608083E1EAF0E080818260AE
:103FE0008083808181608083E0EAF0E0808181606D
:103FF0008083E1E2F1E08081826080838081816062
:104000008083E0E2F1E0808181608083EAE7F0E094
:1040100080818460808380818260808380818160F0
:1040200080838081806880831092C1000895CF933F
:10403000DF93482F50E0CA018B559E4FFC0134910D
:10404000415A5E4FFA0184918823B9F090E0880FBD
:10405000991FFC01EF5EFE4FA591B491FC01E55D57
:10406000FE4FC591D491662359F06230B9F09FB7E5
:10407000F8948C91832B8C939FBFDF91CF910895FF
:104080002FB7F8948C91932F909589238C938881E6
:10409000892388832FBFDF91CF9108952FB7F8949C
:1040A0008C91932F909589238C938881832B88837F
:1040B0002FBFE3CF893009F45EC08A3070F08D30B5
:1040C00009F45FC08E30D0F0803109F46CC08131CA
:1040D00009F463C08F30C9F10895843009F445C0F4
:1040E0008530B8F08730B9F1883048F58630A1F7CF
:1040F0008091B0008F778093B00008958B3009F4E1
:1041000046C08C30B0F08091A0008F7D8093A000DD
:104110000895823031F1833030F48130E9F684B58E
:104120008F7784BD0895809180008F778093800081
:10413000089580919000877F8093900008958091EA
:1041400090008F77809390000895809120018F7761
:104150008093200108958091B0008F7D8093B000FE
:10416000089584B58F7D84BD0895809180008F7DF2
:10417000809380000895809190008F7D80939000BF
:1041800008958091A000877F8093A000089580917A
:10419000A0008F778093A000089580912001877FF1
:1041A000809320010895809120018F7D80932001CC
:1041B0000895FF920F931F93F62E482F50E0CA01E7
:1041C00085519E4FFC012491CA018B559E4FFC01E5
:1041D0000491415A5E4FFA011491112399F0222360
:1041E000D1F4E12FF0E0EE0FFF1FE55DFE4FA5914A
:1041F000B4919FB7F894FF2049F48C9100958023E7
:104200008C939FBF1F910F91FF9008958C91802BED
:104210008C939FBFF7CF822F0E945A20E2CF2F921C
:104220003F924F925F926F927F928F929F92AF9246
:10423000BF92CF92DF92EF92FF920F931F93DF9383
:10424000CF93CDB7DEB73B014C0119012A016E892E
:104250007F89888D998D6A197B098C099D09621A5D
:10426000730A840A950AA40193010E940125E218A9
:10427000F30804091509A80197010E9462252A0D77
:104280003B1D4C1D5D1DB901CA01CF91DF911F91EE
:104290000F91FF90EF90DF90CF90BF90AF909F90E5
:1042A0008F907F906F905F904F903F902F900895E8
:1042B0000F931F93CF93DF93EC018B016F5F7F4FC1
:1042C000888199810E944D02009751F099838883DB
:1042D0001B830A8381E0DF91CF911F910F91089595
:1042E00080E0DF91CF911F910F910895CF93DF93DD
:1042F000EC0188819981892B29F08A819B8186171D
:10430000970780F4CE010E945821882341F08C81C8
:104310009D81892B39F4E881F981108281E0DF9158
:10432000CF91089581E0DF91CF910895CF93DF93EE
:10433000EC0188819981009711F00E94F5011982A2
:1043400018821D821C821B821A82DF91CF910895F0
:10435000EF92FF920F931F93CF93DF93EC017B01BA
:104360008A01BA010E947621882379F01D830C838B
:1043700088819981B7010E942B03CE01DF91CF91F3
:104380001F910F91FF90EF900895CE010E9496210A
:10439000CE01DF91CF911F910F91FF90EF90089583
:1043A000CF93DF93EC01198218821B821A821D823F
:1043B0001C821E826115710551F0DB010D900020F9
:1043C000E9F71197A61BB70BAD010E94A821DF9159
:1043D000CF910895FC01808191810E94F50108959B
:1043E0005058BB27AA270ED0FCC1EDD130F0F2D136
:1043F00020F031F49F3F11F41EF4BDC10EF4E0959E
:10440000E7FBB3C1E92FFED180F3BA176207730748
:104410008407950718F071F49EF516C20EF4E09526
:104420000B2EBA2FA02D0B01B90190010C01CA016E
:10443000A0011124FF27591B99F0593F50F4503E19
:1044400068F11A16F040A22F232F342F4427585F0B
:10445000F3CF469537952795A795F0405395C9F723
:104460007EF41F16BA0B620B730B840BBAF09150DB
:10447000A1F0FF0FBB1F661F771F881FC2F70EC07A
:10448000BA0F621F731F841F48F48795779567954D
:10449000B795F7959E3F08F0B3CF9395880F08F036
:1044A0009927EE0F9795879508958DD158F080E85C
:1044B00091E009F49EEF8ED128F040E851E059F4E4
:1044C0005EEF09C058C1C0C1E92FE0789BD168F305
:1044D000092E052AC1F3261737074807590738F070
:1044E0000E2E07F8E02569F0E025E0640AC0EF63CE
:1044F00007F8009407FADB01B9019D01DC01CA014C
:10450000AD01EF9347D06DD10AD05F91552331F0C3
:104510002BED3FE049E450FD49EC63CF0895DF9374
:10452000DD27B92FBF7740E85FE316161706480767
:104530005B0710F4D92F93D19F938F937F936F9341
:1045400046D2E4EEF0E01AD14CD12F913F914F9139
:104550005F9198D1DD2349F09058A2EA2AED3FE01F
:1045600049EC5FE3D0785D274DDFDF913AC1D9D0C8
:1045700008F481E008950CD034C12CD140F023D14F
:1045800030F021F45F3F19F0F0C051115EC1F3C06B
:1045900039D198F39923C9F35523B1F3951B550BE2
:1045A000BB27AA2762177307840738F09F5F5F4F06
:1045B000220F331F441FAA1FA9F333D00E2E3AF047
:1045C000E0E830D091505040E695001CCAF729D061
:1045D000FE2F27D0660F771F881FBB1F26173707B0
:1045E0004807AB07B0E809F0BB0B802DBF01FF27E0
:1045F00093585F4F2AF09E3F510568F0B6C025C121
:104600005F3FECF3983EDCF3869577956795B79519
:10461000F7959F5FC9F7880F911D9695879597F934
:104620000895E1E0660F771F881FBB1F62177307AD
:104630008407BA0720F0621B730B840BBA0BEE1FC2
:1046400088F7E095089504D06894B111FEC00895EC
:10465000E1D088F09F5790F0B92F9927B751A0F07B
:10466000D1F0660F771F881F991F1AF0BA95C9F706
:1046700012C0B13081F0E8D0B1E00895E5C0672FF5
:10468000782F8827B85F39F0B93FCCF386957795B6
:104690006795B395D9F73EF490958095709561959F
:1046A0007F4F8F4F9F4F0895E89409C097FB3EF4CA
:1046B00090958095709561957F4F8F4F9F4F99236F
:1046C000A9F0F92F96E9BB279395F69587957795ED
:1046D0006795B795F111F8CFFAF4BB0F11F460FFAD
:1046E0001BC06F5F7F4F8F4F9F4F16C0882311F005
:1046F00096E911C0772321F09EE8872F762F05C019
:10470000662371F096E8862F70E060E02AF09A95B3
:10471000660F771F881FDAF7880F9695879597F9A8
:104720000895990F0008550FAA0BE0E8FEEF161642
:104730001706E807F907C0F012161306E407F50795
:1047400098F0621B730B840B950B39F40A2661F009
:10475000232B242B252B21F408950A2609F4A140AC
:10476000A6958FEF811D811D089597F99F6780E8B9
:1047700070E060E008959FEF80EC0895DF93CF93A1
:104780001F930F93FF92EF92DF927B018C0168944D
:1047900005C0DA2EEF0176D0FE01E894A5912591AF
:1047A000359145915591AEF3EF012CDEFE01970155
:1047B000A801DA9479F7DF90EF90FF900F911F91A5
:1047C000CF91DF91089500240A9416161706180653
:1047D0000906089500240A94121613061406050605
:1047E0000895092E0394000C11F4882352F0BB0F96
:1047F00040F4BF2B11F460FF04C06F5F7F4F8F4FF9
:104800009F4F089557FD9058440F551F59F05F3F33
:1048100071F04795880F97FB991F61F09F3F79F0E2
:1048200087950895121613061406551FF2CF469564
:10483000F1DF08C0161617061806991FF1CF8695E6
:104840007105610508940895E894BB2766277727CA
:10485000CB0197F9089565DF08F48FEF08959B0168
:10486000AC0160E070E080E89FE385CE0BD0B9CF6B
:10487000AADF28F0AFDF18F0952309F076CF7BCFC1
:104880001124E3CFBFDFA0F3959FD1F3950F50E044
:10489000551F629FF001729FBB27F00DB11D639FF2
:1048A000AA27F00DB11DAA1F649F6627B00DA11D98
:1048B000661F829F2227B00DA11D621F739FB00D3E
:1048C000A11D621F839FA00D611D221F749F3327AE
:1048D000A00D611D231F849F600D211D822F762F47
:1048E0006A2F11249F5750408AF0E1F088234AF044
:1048F000EE0FFF1FBB1F661F771F881F9150504090
:10490000A9F79E3F510570F030CF9FCF5F3FECF38A
:10491000983EDCF3869577956795B795F795E7957B
:104920009F5FC1F7FE2B880F911D9695879597F98C
:10493000089511F40EF41FCF4DC06CDFD0F399230E
:10494000D9F3CEF39F57550B87FF54D056959795C3
:10495000B0E020F4660F771F881FBB1F1F930F93D3
:1049600000249001A0018001F001A0E80E0F1F1F9C
:104970000A1E511D601B710B8009B50B48F4600FB6
:10498000711F801DB51F0E1B1F0B0A0A510907C09E
:104990002E0F3F1F4A1F0E0F1F1F0A1E511D660FAD
:1049A000771F881FBB1FA695F795E795F8F60617A2
:1049B000170708065B07211D311D411D0F911F912F
:1049C000B901842F9158880F9695879508959B017A
:1049D000AC014CCF9F3F49F0915028F486957795D4
:1049E0006795B7959F5F80389F4F880F96958795FD
:1049F00097F9089591505040660F771F881FD2F79E
:104A00000895629FD001739FF001829FE00DF11D18
:104A1000649FE00DF11D929FF00D839FF00D749F38
:104A2000F00D659FF00D9927729FB00DE11DF91FE4
:104A3000639FB00DE11DF91FBD01CF011124089541
:104A4000991B79E004C0991F961708F0961B881FE0
:104A50007A95C9F780950895AA1BBB1B51E107C041
:104A6000AA1FBB1FA617B70710F0A61BB70B881FFE
:104A7000991F5A95A9F780959095BC01CD0108958D
:104A8000A1E21A2EAA1BBB1BFD010DC0AA1FBB1F52
:104A9000EE1FFF1FA217B307E407F50720F0A21BC4
:104AA000B30BE40BF50B661F771F881F991F1A9431
:104AB00069F760957095809590959B01AC01BD015B
:104AC000CF01089597FB092E05260ED057FD04D07F
:104AD000D7DF0AD0001C38F45095409530952195C9
:104AE0003F4F4F4F5F4F0895F6F790958095709523
:104AF00061957F4F8F4F9F4F0895EE0FFF1F0590D9
:104B0000F491E02D19942F923F924F925F926F9201
:104B10007F928F929F92AF92BF92CF92DF92EF924D
:104B2000FF920F931F93CF93DF93CDB7DEB7CA1BCE
:104B3000DB0B0FB6F894DEBF0FBECDBF19942A88E9
:104B4000398848885F846E847D848C849B84AA84A1
:104B5000B984C884DF80EE80FD800C811B81AA812E
:104B6000B981CE0FD11D0FB6F894DEBF0FBECDBFF9
:104B7000ED01089512E0C6E3D2E004C0FE010E94F8
:0E4B80007F252296C833D107C9F7F894FFCFDE
:104B8E0000492072656365697665643A20006C653C
:104B9E0067206D696E3A00002000330900000C0397
:104BAE00C4098403F00A1603280A0C03C40926025A
:104BBE00FC088A026009DA02920934036009800255
:104BCE00FC084402280AF401C40926026009EE0218
:104BDE00C4096C02FC086C02FC082003F609EE0204
:104BEE00C409EE0292099A99193F000101000001D1
:104BFE00000000407BBC243F9605233FC34A213F63
:104C0E00BD8B1F3F65C81D3FA8001C3F55341A3F82
:104C1E004963183F438D163F31B2143FBFD1123F47
:104C2E00CCEB103F26000F3F880E0D3FA0160B3F1A
:104C3E004C18093F1613073FDD06053F2CF3023FC4
:104C4E00AED7003FFD67FD3E730FF93EB1A4F43EB3
:104C5E00CC26F03E9694EB3E03EDE63E7F2EE23EF2
:104C6E00DE57DD3E4967D83EEA5AD33ECB30CE3EC4
:104C7E008EE6C83EB779C33E21E7BD3E842BB83ED3
:104C8E00D042B23E7028AC3EBFD6A53E73479F3E83
:104C9E004B72983E724D913EB8CC893EFCDF813E00
:104CAE004BE4723E79CC603E9E244D3E8B6C373E7B
:104CBE00FBCB1E3E249D013E9F3DB73D00000000F4
:104CCE00000000007FF78E3C4DF30E3D465E563DD4
:104CDE00C2DC8E3DD87EB23D4D13D63D7496F93D65
:104CEE005E830E3E7F30203EC8D0313E6F63433E22
:104CFE00E2E6543E8E59663E67BA773EED83843EB9
:104D0E004B208D3EC8B1953E7A379E3ED9B0A63E19
:104D1E003F1DAF3E037CB73E7DCCBF3EE50DC83E8A
:104D2E00D53FD03E6361D83E2A72E03E8271E83EA6
:104D3E00A25EF03E0439F83E0000003F88D9033FE2
:104D4E00C6A8073F766D0B3F46270F3FE0D5123FB3
:104D5E001479163F8C101A3F069C1D3F1E1B213FD7
:104D6E00C18D243F7CF3273F2B4C2B3F6C972E3F5E
:104D7E001BD5313FF704353FAB26383F043A3B3F56
:104D8E00C03E3E3FAD34413F761B443F0AF3463FA3
:104D9E0017BB493F69734C3FBD1B4F3FF2B3513FA9
:104DAE00D63B543F25B3563FAC19593F4C6F5B3F32
:104DBE00D0B35D3F19E75F3FE108623F0919643FD9
:104DCE005D17663FCD03683F27DE693F37A66B3F11
:104DDE00EE5B6D3F19FF6E3FB88F703F880D723FCF
:104DEE007978733F68D0743F4415763FED46773F30
:104DFE005265783F5070793FE8677A3FE84B7B3FCA
:104E0E00611C7C3F1FD97C3F34827D3F7F177E3FE4
:104E1E00FE987E3FA3067F3F5B607F3F37A67F3FB6
:104E2E0017D87F3F0AF67F3F0000803F000000004A
:104E3E000813AA1300000000DD1B661D741BA61BC1
:044E4E00851BD01BD5
:00000001FF
